:020000040800F2
:10000000100B002095010008990100089B010008D1
:100010009D0100089F010008A101000800000000E8
:10002000000000000000000000000000A301000824
:10003000A501000800000000A7010008A9010008B0
:10004000AB010008AB010008AB010008AB010008E0
:10005000AB010008AB010008AB010008AB010008D0
:10006000AB010008DB120008AB010008AB0100087F
:10007000AB010008AB010008AB010008AB010008B0
:10008000AB010008AB010008AB010008AB010008A0
:10009000AB010008AB010008AB01000849130008E0
:1000A000AB0100084F170008AB010008AB010008C6
:1000B00049120008AB01000831120008AB0100082A
:1000C000AB010008AB010008AB010008AB01000860
:1000D000AB010008AB010008AB010008AB01000850
:1000E00071130008AB010008AB01000800F002F832
:1000F00000F03AF80AA090E8000C82448344AAF188
:100100000107DA4501D100F02FF8AFF2090EBAE885
:100110000F0013F0010F18BFFB1A43F0010318473B
:100120007036000090360000103A24BF78C878C1BD
:10013000FAD8520724BF30C830C144BF04680C60ED
:10014000704700000023002400250026103A28BF35
:1001500078C1FBD8520728BF30C148BF0B60704739
:100160001FB51FBD10B510BD01F09BFF1146FFF775
:10017000F7FF00F02BF801F0B9FF03B4FFF7F2FF2F
:1001800003BC00F015FA000030BF72B662B680F30F
:100190000888704708480047FEE7FEE7FEE7FEE7ED
:1001A000FEE7FEE7FEE7FEE7FEE7FEE70348044959
:1001B000044A054B70470000ED00000810050020C0
:1001C000100B00201007002010070020092000F06D
:1001D00097F9482000F038F8022000F07CF901205F
:1001E00000F079F94FF47A7000F064F84FF47A7007
:1001F00000F060F800F058FA01F03EF800F0AAFCB8
:100200004FF4FA31482000F0EBF9002141F61F408D
:1002100000F094FE00F0E8FE00F04EFD41F61F41B4
:10022000632000F04BFE0BE001F02DFE012005499C
:10023000087001F027FB00BF024800780028FBD1BE
:10024000F2E700003D0000204FF0E021096921F0B5
:1002500004014FF0E0221161C21700EB5272D2107C
:10026000224B1A701946097801EB4102C2EBC11109
:100270004FF6FF7202EAC1011D4A11807047014624
:100280001A4A12784A434FF0E0235A6100229A61D9
:1002900001221A6100BF4FF0E022106910F0010F37
:1002A00002D010F4803FF6D000224FF0E0231A6114
:1002B0009A61704701460E4A12884A434FF0E02384
:1002C0005A6100229A6101221A6100BF4FF0E022B8
:1002D000106910F0010F02D010F4803FF6D0002218
:1002E0004FF0E0231A619A61704700004C00002033
:1002F0004E000020A34A0A400243A34B1A607047F5
:100300000146072323EA010212029F4B1B1D1868B6
:100310004FF6FF0318409D4B184310439A4B1B1D8B
:10032000186070472DE9F0410746884614461D467F
:100330002846FFF7E5FFC5F1040007FA00F60F2095
:10034000284100EA0800064306F00F06E21704EB16
:10035000D26252114FF0E02303EB8202D2F8002167
:100360002146E31704EBD3635B11A4EB431C012389
:1003700003FA0CF31A432046E31704EBD3635B1133
:100380004FF0E02C0CEB8303C3F800218048005DA4
:1003900040EA06107E490855BDE8F08170B5044674
:1003A0000B46CE1701EB9676B010CE1701EB967682
:1003B000B610A1EB8606B606350E764B9B6943F068
:1003C0000103744EB3614FEAB63353F820300F2661
:1003D000AE40B343704E46F82030334653F82030D9
:1003E00004FA05F633436C4E46F820306B4B1E681A
:1003F00001238B401E43694B1E6012F0010F08D091
:10040000664B0C331B6801268E403343634E0C361B
:10041000336012F0020F08D0604B08331B680126CE
:100420008E4033435D4E0836336070BD00B500200A
:1004300058490861C8601420486100208861C8617B
:100440000846006840F001000860084640685449CA
:1004500008405049486008460068524908404D49E4
:1004600008600846006820F480200860084640685C
:1004700020F4FE0048600020886000214FF00060FA
:10048000FFF738FF00BD10B53F480830006840F066
:1004900004003D49083108603E48C06940F0805082
:1004A0003C49C8614048406840F480703E4948601B
:1004B0000846006840F0040008600846006840F004
:1004C00002000860FFF760FE10BD3048001D2E4995
:1004D000091D08607047014649062E4A926942F09C
:1004E00001022C4B9A612C4A083A526822F0E062D1
:1004F000294B083B5A601A4652680A435A607047B3
:1005000030B504460025FFF791FF2248006840F40B
:1005100080302049086000BF1E480068400CFBD0B6
:100520004FF480601B494860A01EC4B20846406872
:1005300040EA844048600846406840F480304860A3
:100540001A48006840F032001849086011480068F5
:1005500040F080700F49086000BF0E480068400EF0
:10056000FBD00C48406840F002000A49486005E0B2
:1005700008484068C0F3870505F00305022DF7D150
:1005800030BD000080FFFF1F08ED00E00000FA050D
:1005900000E400E0001002400800014000040140B7
:1005A0000000FFF8FFFFF6FE007000400020024050
:1005B000014600BF704700BF374A128812F0400F53
:1005C000FAD0C2B2344B1B1D1A8070473249091D44
:1005D000088000BF3049098811F0400FFAD07047F9
:1005E0002DE9F05F05460E46300102F0D9F981464B
:1005F0002A4905FB01F002F0D3F98246494602F090
:1006000085F80746384602F093F984B2204602F096
:10061000C7F98346394602F008FB82464FF0834112
:1006200002F006FA814602F083F980464FF6FF7029
:1006300000EA041404EB080084B21948806940F011
:100640000400174988610846806940F48040886149
:100650001448006820F47F6012490860084600686A
:1006600040F40B6008600E48C06840F480400C49BC
:10067000C8600846C06820F48040C860064808305A
:100680000480001D008842F20C01084302490C312D
:100690000880BDE8F09F00000038014040420F0094
:1006A00000100240040801401848806940F004002E
:1006B000164988611648006820F4702014490860C3
:1006C0000846006840F44030086011480C3000686B
:1006D00040F010000E490C310860704718B9002135
:1006E0000C4A116011E00C490968491C0A4A116062
:1006F00081420AD1074909686FEA0101074AC2F835
:1007000090114FF00001044A116070470010024040
:1007100000080140900121425000002000002142C9
:100720004648806940F004004449886144480068B4
:1007300020F47F20424908600846006840F4082001
:100740000860081F00683F4908403D49091F0860CC
:10075000084600683C4908433949091F0860384881
:100760000830006840F00C00354908310860084640
:10077000006840F0200008600846006840F4C0505F
:100780000860704701463148006828B93048008841
:10079000401C2F4A108002E000202D4A10802B4878
:1007A000006828B92B48007810B90120294A107038
:1007B00029480078B0B927480078012807D1274890
:1007C0000078401C254A10700120234A10702348ED
:1007D0000078022806D10020204A1070204A10809C
:1007E0000220704719480068012804D10020194AE6
:1007F0001070194A10701948007801281CD1184847
:100800000088401C164A10801046008888420ADD85
:100810000F480088884206DA0020104A1070104AFB
:1008200010800120DDE70A480088884204DD0020AE
:100830000A4A10700A4A10800020D2E700100240D5
:1008400004080140FF000FFF0088800008012142DA
:100850005A000020540000205500002056000020BF
:100860005800002010B50A461AB10123FE4C23603F
:1008700002E00023FC4C23604FF0000118E000234D
:10088000FA4C236010F0800F04D00123A4F104047B
:10089000236002E00023F64C23604FF00103F34C89
:1008A00023604FEA40634FEA136001F10103D9B2BC
:1008B0000829E4DB0123EC4C236010BD30B5002493
:1008C0001CE004F1B001C8B20021FFF7CBFF00210A
:1008D0000846FFF7C7FF00211020FFF7C3FF0025E0
:1008E00008E0E44901EBC501085D0121FFF7BAFF0B
:1008F000681CC5B2802DF4DB601CC4B2082CE0DBA0
:1009000030BD00B500218D20FFF7ACFF0021142081
:10091000FFF7A8FF0021AF20FFF7A4FF00BD00B53F
:1009200000218D20FFF79EFF00211020FFF79AFF86
:100930000021AE20FFF796FF00BD30B500240CE08B
:10094000002506E00020CB4901EBC5010855681CD5
:10095000C5B2802DF6DB601CC4B2082CF0DBFFF7BB
:10096000ADFF30BDF0B5144600267F2801DC3F29DD
:1009700000DDF0BD0B46CF1701EB5777FF10C7F135
:100980000707FAB2CF1701EB5777FF10A1EBC707A4
:10099000FDB2C5F107070123BB40DEB24CB1B54B38
:1009A00003EBC0039B5C3343B24F07EBC007BB5460
:1009B00008E0B04B03EBC0039B5CB343AD4F07EBC8
:1009C000C007BB5400BFD4E72DE9F04F80460C466A
:1009D00015461E46A346A5F12000C5B200273EE0FD
:1009E0000C2E07D105EB4500A34901EB800010F860
:1009F000079004E0A14800EB051010F807904FF0B5
:100A0000000A26E019F0800F05D021464046099AD9
:100A1000FFF7A8FF09E0099808B9012000E00020CD
:100A2000024621464046FFF79DFF4FEA49604FEAE4
:100A30001069601CC4B2A4EB0B00B04205D15C4647
:100A400008F1010000F0FF0806E00AF1010000F0E3
:100A5000FF0ABAF1080FD5DB00BF781CC7B2B74256
:100A6000BEDBBDE8F08F10B50246012000E0504328
:100A70000B00A1F10104E1B2F9D110BD2DE9FF4F46
:100A800081B0074691461E460E9D4FF0000A002495
:100A900039E0301B401EC1B20A20FFF7E4FFB9FB6A
:100AA000F0F00A21B0FBF1F201FB1208BAF1000FDD
:100AB00016D1701EA04213DDB8F1000F0ED1012037
:100AC000AB4605EBDB71491001FB04710090C8B225
:100AD0002B4620220299FFF777FF12E04FF0010A20
:100AE0000120AB4605EBDB71491001FB047100905E
:100AF000C8B208F13001CAB22B460299FFF764FF71
:100B000000BF601CC4B2B442C3DB05B0BDE8F08FC7
:100B100078B505460E46144618E07A2D03DD00250B
:100B200006F11000C6B23A2E04DD00200546064646
:100B3000FFF703FF0120009022780C23314628465E
:100B4000FFF742FF05F10800C5B2641C20780028B9
:100B5000E3D178BD10B54A48806940F008004849A3
:100B60008861484800684849084046490860084686
:100B7000006846490843434908604148806940F09D
:100B800004003F4988614248006820F070404049B5
:100B900008600846006840F00050086000203D49A9
:100BA00008604FF06400FFF785FB01203A49C1F867
:100BB0008C010021AE20FFF755FE0021D520FFF764
:100BC00051FE00215020FFF74DFE0021A820FFF725
:100BD00049FE00213F20FFF745FE0021D320FFF70B
:100BE00041FE00210846FFF73DFE00214020FFF7AF
:100BF00039FE00218D20FFF735FE00211420FFF77C
:100C000031FE00212020FFF72DFE00210220FFF7FA
:100C100029FE0021A120FFF725FE0021C020FFF7BB
:100C200021FE0021DA20FFF71DFE00211220FFF730
:100C300019FE00218120FFF715FE0021EF20FFF7AC
:100C400011FE0021D920FFF70DFE0021F120FFF752
:100C500009FE0021DB20FFF705FE00213020FFF711
:100C600001FE0021A42019E0BC012142948121420F
:100C700090812142840000202A2D00089E31000826
:100C800000100240000C0140FF0F00FF0020220076
:100C9000040801408C81214200802142FFF7E2FDDF
:100CA0000021A620FFF7DEFD0021AF20FFF7DAFDCF
:100CB000FFF743FE10BD00007748806940F0040054
:100CC000754988617548006820F070607349086054
:100CD0007148806940F400706F4988610846C068B7
:100CE00040F40070C8600846C06820F40070C86016
:100CF0000846406820F4404048600846406840F498
:100D000000404860664800686649084064490860D9
:100D10000846006808600846006820F48070086093
:100D2000081D006820F00200091D086008460068E0
:100D300020F4602008600846006840F460200860E5
:100D40000846006840F4801008600846006820F4F7
:100D50000060086052482830006820F47000504954
:100D60002831086008460068002008604C480C30B4
:100D7000006820F070604A490C310860084600683D
:100D800040F4E01008604648001D006840F0010093
:100D90004349091D08600846006840F008000860E3
:100DA00000BF3F48001D006810F0080FF9D13C4813
:100DB000001D006840F004003949091D086000BFAB
:100DC0003748001D006810F0040FF9D17047014644
:100DD00033483030006820F01F00314A3032106054
:100DE00010460068084310602D48001D006840F45C
:100DF00080002B4A121D106000BF2948001F0068A8
:100E000010F0020FF9D026484830006880B27047D1
:100E10002DE9F04F87B00620FFF7D9FF019001F0D0
:100E2000F6FA80464FF066321F4B01F003FB0022BA
:100E30001E4BCDE9020101F0FDFA00221C4BCDE969
:100E4000040101F0F7FA064600221A4B01F058F9A6
:100E500004460022184B01F053F9824601F0A8FA2B
:100E60000690069807B0BDE8F08F2DE9F0410746DF
:100E70000C460025002608E03846FFF7A8FF054489
:100E8000C820FFF7FCF9701CC6B2A642F4DBB5FB24
:100E9000F4F080B2BDE8F08100100240000801408B
:100EA00004240140FFFFF00066660A40000026406F
:100EB000000059400000F03F0000B04070B505460A
:100EC0000C461348806940F400601149886111485C
:100ED0000580001F04800F482038008840F0010082
:100EE0000C49203908800846008840F040000880FE
:100EF00008482C38008840F0010006492C39088049
:100F00000223192203210120FFF70CFA70BD000013
:100F1000001002402C2C01402F48806940F008004E
:100F20002D4988612D48006880B22C490860084628
:100F300000682B49084329490860704700B50346FB
:100F40000A46FFF7E9FF2448C06940F00200224941
:100F5000C8610846806940F0080088611F48001F8A
:100F6000006820F0FF001D49091F0860084600685E
:100F700040F0BB0008601B480380001F0280194836
:100F80001038008840F4C0401649103908800846DF
:100F9000008840F0600008800846008840F4006047
:100FA00008800846008840F008000880081D008876
:100FB00040F48050091D08800846008840F4807085
:100FC0000880C81307492C3908800846008840F07B
:100FD0000100088000BD000000100240040C014028
:100FE000000022222C04004010B59D48C06940F04A
:100FF00001009B49C8610846806940F0040088618F
:101000009848006820F0FF0096490860084600688C
:1010100040F044000860C804808940F00100C90421
:1010200088810846808940F04000888101231C2285
:1010300003211846FFF776F900204FF0804108851C
:101040004FF6FF7088850846008820F440700880BD
:101050000846008820F0600008800846008B40F0B9
:10106000010008830846008B40F48070088308461E
:10107000008C20F0020008840846008C20F020003C
:1010800008840846008B40F0300008830846008939
:1010900040F0030008814FF07E517348006801F072
:1010A000F7FB04D142F210708106888403E000202F
:1010B0004FF0804188844FF08040008840F001006C
:1010C0004FF08041088010BD10B56548C06940F000
:1010D00004006349C8610846806940F008008861DF
:1010E0006248006820F07F40604908600846006858
:1010F00040F0884008605E48008840F001005C498C
:1011000008800846008840F04000088001231E2225
:1011100003211846FFF706F9002055491C310880C5
:101120004FF6FF70091D088051480C38008820F4E4
:1011300040704F490C3908800846008820F0600054
:1011400008804B480C30008840F0010048490C31C1
:1011500008800846008840F48070088044481430B5
:10116000008820F0020042491431088008460088B7
:1011700020F0200008803E480C30008840F030000D
:101180003B490C3108803A48001F008840F00300BA
:101190003749091F088042F210703549183108801C
:1011A00033480C38008840F0010031490C39088080
:1011B00010BD0146022904D003290BD0042919D1FE
:1011C0000FE04FF08042928C10B200224FF080432B
:1011D0009A8411E0274A128810B20022254B1A8007
:1011E0000AE0234A1832128810B20022204B18332A
:1011F0001A8001E0002000BF00BF704701460229AD
:1012000004D0032907D004290ED108E04FF0804212
:10121000928C10B20AE0174A128810B206E0144A03
:101220001832128810B201E0002000BF00BF7047E2
:101230000F48001D00880E48001D008820F00100A6
:101240000B49091D088070474FF08040008A4FF01D
:101250008040008A20F001004FF0804108827047F2
:10126000001002400008014038000020000C01403E
:101270000C0800402404004010B5FFF751FAB148B3
:10128000006818B94FF08040AF490860012203217F
:101290000020FFF783F8012205210020FFF77EF8E8
:1012A00001220B210020FFF779F801220C210020F8
:1012B000FFF774F80223172219461846FFF732F891
:1012C0000223282219461846FFF72CF80223092288
:1012D00019461846FFF726F810BD10B50420FEF792
:1012E000E9FF9A48006801282DD14FF07E519648B9
:1012F000006801F0CDFA11D14FF07E51944800689A
:1013000001F096F9924904460860924901F05CFCAC
:1013100016D24FF07E508E49086011E04FF07E519A
:101320008B48006801F084F98949044608604FF051
:10133000804101F049FC03D24FF07E50844908609F
:1013400008208549086010BD10B50420FEF7B2FFE3
:101350008248006801280AD18148007808B9012034
:1013600000E000207E49087020207B49086010BD05
:1013700010B50420FEF79EFF4FF07E5172480068C2
:1013800001F086FA64D17748006801282DD14FF02A
:101390007E516F48006801F07BFA08D172480168FD
:1013A0007248006801F04CFC704908601DE04FF085
:1013B00080416748006801F06BFA08D16C48016809
:1013C0006C48006801F03CFC6A4908600DE0614926
:1013D0005F48006801F05CFA07D167480168674818
:1013E000006801F02DFC6549086056480068012836
:1013F00074D14FF07E515648006801F049FA08D187
:10140000594801685948006801F012F957490860C5
:1014100064E04FF080414E48006801F039FA08D18D
:10142000534801685348006801F002F951490860C7
:1014300054E048494648006801F02AFA4ED14E4827
:1014400001684E48006801F0F3F84C49086045E037
:101450004448006801281ED14FF07E513C48006886
:1014600001F016FA08D1464801684648006801F0C4
:10147000E7FB444908600EE04FF0804134480068C3
:1014800001F006FA07D1404801684048006801F0C1
:10149000D7FB3E4908602B48006801281ED14FF059
:1014A0007E512B48006801F0F3F908D134480168F7
:1014B0003448006801F0BCF8324908600EE04FF093
:1014C00080412348006801F0E3F907D12E48016804
:1014D0002E48006801F0ACF82C490860002129482A
:1014E000006801F071FA02D8002026490860002146
:1014F0002648006801F068FA02D8002023490860F5
:1015000000211E48006801F05FFA02D800201B4944
:10151000086000211548006801F056FA02D8002042
:101520001249086000211348006801F04DFA02D802
:101530000020104908604FF400600749086040002F
:10154000086010BD30012142380000200C0121420A
:1015500034000020000040401404014014012142E6
:10156000000000202C012142200000200C0000205F
:10157000240000201000002028000020140000207B
:101580002C00002018000020300000201C0000204B
:1015900070B54FF482750F263220FFF7F3F804463A
:1015A0004FF07E519D48006801F072F90ED1012C78
:1015B00004D19B480068284499490860022C13D143
:1015C00097480068401B964908600DE0012C04D143
:1015D00094480068304493490860022C04D1914833
:1015E0000068801B8F4908608E480068322802DD41
:1015F00032208C4908608B480068002802DA0020FD
:101600008849086070BD0146002901DA484200E0BF
:101610000846704700B50246002A08DA01208249D0
:1016200008604FF000008149C1F8B40107E00020D4
:101630007D4908604FF001007C49C1F8B4011046B3
:10164000FFF7E1FF7A49088000BD41F6BC307949D7
:1016500009684242914202DA4142764A1160754974
:101660000968814201DD7349086070472DE9F04740
:1016700004460D46601B01F07BF96F49086008467F
:1016800001686E48006801F0D3F980466C48016833
:101690006948006801F0D4FA81466A480168484602
:1016A00001F0C6F90746414600F0C2FF064666480B
:1016B0000168304600F0BCFF634908605E4800687E
:1016C0005F4908606048006801F016F9BDE8F087DE
:1016D0002DE9F04704460D46601B01F049F95B49CE
:1016E0000860084601685A48006800F0A1FF5849A0
:1016F0000860584801685548006801F0A1FA804622
:1017000055480168404601F093F906465048016883
:101710005248006801F08CF980464C4801685048F6
:10172000006801F085F98146414600F081FF0746D7
:10173000314600F07DFF4B49086044480068454948
:1017400008604848006801F0D7F8BDE8F08710B598
:101750004548008810F0010F5DD04348008820F014
:101760000100414908804FF07E512C48006801F08B
:101770008FF80DD10220FFF741FD3C490860284851
:1017800001683A480068FFF7A3FF2A4908601CE097
:1017900037480078401CC0B235490870022814DD73
:1017A000012008700220FFF704FD30490860084658
:1017B0000068002801DA002008601A4801682B48F8
:1017C0000068FFF753FF1B4908602A48007801288A
:1017D0000BD129480078401CC0B227490870052861
:1017E00003D10020087023490870FFF72EFF23481B
:1017F000007820B90F480068FFF70CFF02E00020D6
:10180000FFF708FF6420FEF769FFFFF7C1FEFFF74F
:10181000FFFA1B490860002010BD000038000020BE
:101820000400002008000020B081214200802142F5
:101830004004004044000020600000201C00002004
:101840006800002018000020640000206C000020C8
:1018500074000020780000201400002010000020F8
:101860000C00002070000020102C014040000020DF
:101870005C0000203D0000203C0000200000002013
:101880004800002038B54FF07E51FE48006800F057
:10189000FFFF7DD1FCA200210846FFF739F9FE4881
:1018A000007828B9FDA20A210020FFF731F904E0F1
:1018B000FDA20A210020FFF72BF9FEA2142100202F
:1018C000FFF726F9FC48006801F032F804460C20C6
:1018D00003232246142100900846FFF7CFF8F7A211
:1018E00014212520FFF714F9F549F348006801F0A9
:1018F0009FF8054601F000F80A2190FBF1F201FB88
:1019000012040C2001232246142100902920FFF705
:10191000B5F8ECA214214B20FFF7FAF8EA4800686A
:1019200001F006F804460C20022322461421009000
:101930005C20FFF7A3F8E1A214216820FFF7E8F884
:10194000DF49E148006801F073F8054600F0D4FF74
:101950000A2190FBF1F201FB12040C200123224624
:10196000142100906F20FFF789F8D8A21E210020D3
:10197000FFF7CEF8D648006800F0DAFF04460C20E6
:10198000032322461E2100901420FFF777F800E081
:1019900018E1CAA21E212520FFF7BAF8C849CC4891
:1019A000006801F045F8054600F0A6FF0A2190FB0B
:1019B000F1F201FB12040C20012322461E210090AB
:1019C0002920FFF75BF8BFA21E214B20FFF7A0F8EC
:1019D000C048006800F0ACFF04460C2002232246F9
:1019E0001E2100905C20FFF749F8B4A21E21682058
:1019F000FFF78EF8B249B748006801F019F80546BC
:101A000000F07AFF0A2190FBF1F201FB12040C2096
:101A1000012322461E2100906F20FFF72FF8AEA26F
:101A200028210020FFF774F8AC48006800F080FF20
:101A300004460C2003232246282100901420FFF79F
:101A40001DF89EA228212520FFF762F89C49A34893
:101A5000006800F0EDFF054600F04EFF0A2190FB04
:101A6000F1F201FB12040C200123224628210090F0
:101A70002920FFF703F893A228214B20FFF748F80D
:101A80009748006800F054FF04460C2002232246C9
:101A9000282100905C20FEF7F1FF88A22821682011
:101AA000FFF736F886498E48006800F0C1FF05460A
:101AB00000F022FF0A2190FBF1F201FB12040C203E
:101AC00001232246282100906F20FEF7D7FF4FF018
:101AD0007E518448006800F0DBFE18D101200C2301
:101AE0005922142100903C20FEF76EFF01200C23A8
:101AF0004E221E2100903C20FEF766FF01200C23A1
:101B00004E22282100903C20FEF75EFF3DE04FF082
:101B100080417448006800F0BBFE18D101200C23FE
:101B20004E22142100903C20FEF74EFF01200C2392
:101B300059221E2100903C20FEF746FF01200C2375
:101B40004E22282100903C20FEF73EFF1DE0664912
:101B50006448006800F09CFE17D101200C234E223F
:101B6000142100903C20FEF72FFF01200C234E2271
:101B70001E2100903C20FEF727FF01200C23592254
:101B8000282100903C20FEF71FFF58A232210020A0
:101B9000FEF7BEFF0C200523009055483221026855
:101BA0000F20FEF76BFF53A232215020FEF7B0FF4B
:101BB0000C20052300905048322102685F20FEF778
:101BC0005DFF5DE14DA200210846FEF7A1FF32480E
:101BD000007828B931A20A210020FEF799FF04E01D
:101BE00031A20A210020FEF793FF32A21421002027
:101BF000FEF78EFF4548006800F09AFE04460C2070
:101C000003232246142100900846FEF737FF2BA23B
:101C100014212520FEF77CFF29493C48006800F08C
:101C200007FF054600F068FE0A2190FBF1F201FB78
:101C300012040C2001232246142100902920FEF7D3
:101C40001DFF20A214215520FEF762FF30480068D6
:101C500000F06EFE04460C20012322461421009061
:101C60006220FEF70BFF15A214216820FEF750FF3B
:101C700013492748006800F0DBFE054600F03CFEF3
:101C80000A2147E038000020504F534954494F4E35
:101C9000204D4F4445000000000000204D4F544FA0
:101CA00052205354415254004D4F544F5220434CF4
:101CB0004F5345004B503A000C0000202E0000000E
:101CC00000002041413A0000200000204B493A002A
:101CD00010000020240000204B443A001400002093
:101CE000280000203400002000004040543A00004A
:101CF00004000020503A00004000002056454C4FA0
:101D000043495459204D4F4445000000180000201D
:101D10002C00002090FBF1F201FB12040C200123A7
:101D20002246142100906F20FEF7A8FEAFF2640255
:101D30001E210020FEF7ECFE7648006800F0F8FD5A
:101D400004460C20032322461E2100901420FEF797
:101D500095FEAFF298021E212520FEF7D9FE6E49AE
:101D60006C48006800F064FE054600F0C5FD0A21DD
:101D700090FBF1F201FB12040C20012322461E21EC
:101D800000902920FEF77AFEAFF2C8021E215520EE
:101D9000FEF7BEFE6148006800F0CAFD04460C2054
:101DA000012322461E2100906220FEF767FEAFF25B
:101DB000F4021E216820FEF7ABFE57495748006821
:101DC00000F036FE054600F097FD0A2190FBF1F287
:101DD00001FB12040C20012322461E2100906F20DB
:101DE000FEF74CFE4FF07E514D48006800F050FD6C
:101DF00010D101200C235922142100903C20FEF721
:101E0000E3FD01200C234E221E2100903C20FEF712
:101E1000DBFD16E04FF080414148006800F038FDDE
:101E20000FD101200C234E22142100903C20FEF7FC
:101E3000CBFD01200C2359221E2100903C20FEF7EF
:101E4000C3FDAFF2581232210020FEF761FE0C20D4
:101E5000052300903348322102680F20FEF70EFE62
:101E6000AFF2701232215020FEF752FE0C2000908B
:101E70002D48008882B2052332215F20FEF7FEFD47
:101E8000FEF71CFD38BD10B52748006800F070FD56
:101E90000446012100F064F84FF07E5123480068A9
:101EA00000F0F6FC08D12248006800F061FD04460D
:101EB000022100F055F807E01A48006800F058FDCC
:101EC0000446022100F04CF80321002000F048F8FD
:101ED000032000F094F81749087000201649087094
:101EE00011E000BF1548008810F0400FFAD01448E8
:101EF00011490978405C1149091D08800E48007895
:101F0000401C0D4908700C4800780A49097888423D
:101F1000E7DB10BD1C000020000020413000002045
:101F2000340000200800002040000020380000207D
:101F3000040000207E0000207C00002000380140CA
:101F40008404002030B503461C788C545D78541C02
:101F50000D559D78941C0D55DD78D41C0D5530BD64
:101F600013B50C460A2C00DC04B91CBD0B2C43D263
:101F7000DFE804F042060C12181E242A30363C001A
:101F8000012244496846FFF7DDFF35E0052241495B
:101F90006846FFF7D7FF2FE009223E496846FFF762
:101FA000D1FF29E00D223B496846FFF7CBFF23E034
:101FB000112238496846FFF7C5FF1DE01522354953
:101FC0006846FFF7BFFF17E0192232496846FFF75E
:101FD000B9FF11E01D222F496846FFF7B3FF0BE060
:101FE00021222C496846FFF7ADFF05E0252229494B
:101FF0006846FFF7A7FF00BF00BF00BFB5E7014677
:102000000A2900DC09B9002070472420214A1070F9
:102010000B293CD2DFE801F03B060B10151A1F24F8
:10202000292F350005201B4A50710620ECE70920B6
:10203000184A50720A20E7E70D20164A50730E2006
:10204000E2E71120134A50741220DDE71520114AEF
:1020500050751620D8E719200E4A50761A20D3E77B
:102060001D200C4A50771E20CEE72120094A82F815
:1020700021002220C8E72520064A82F825002620D4
:10208000C2E72920034A82F829002A20BCE7002061
:10209000BAE700008404002070477047704770471B
:1020A0007047754600F028F8AE460500694653466D
:1020B00020F00700854618B020B5FEF777F8BDE898
:1020C00020404FF000064FF000074FF000084FF09F
:1020D000000B21F00701AC46ACE8C009ACE8C00930
:1020E000ACE8C009ACE8C0098D4670470446AFF3C0
:1020F00000802046FEF741F800487047B0040020F9
:102100002DE9C04130B4DFF8A0C23CEA111418BF79
:102110003CEA131400F0EC8081EA03051CEA111478
:1021200044EAD57418BF1CEA131500F0C780A4EB6D
:1021300005044FF0004545EAC12145EAC32341EAC1
:10214000505143EA525304F17F74994204F500342C
:102150004FEAC0204FEAC22208BF904200F09C80A4
:102160004FEA13650FF24016765D4FEA134506FB02
:1021700005F7C7F1807706FB07F74FEAD737A7FBCC
:1021800003687642C8F58038A7FB06CE38BFA8F1B1
:10219000010807FB08E64FF0000EA6FB028CE6FBE9
:1021A00003CEDCF1000CCEF1004E38BFAEF1010ED3
:1021B000A6FB0C584FF000074FF00005E6FB0E871A
:1021C000A1FB08C6A0FB07CE16EB0E0645F10005E5
:1021D000E1FB076515F1E04E7EBFA4F580345FEAB0
:1021E00046066D4116F1800745F100054FEA1727B5
:1021F0004FEA066647EA0567A6F1DE46B6F1805F5C
:102200004FEA15251FD9384624F0010C05EBC4719F
:10221000BCF1FE6F01EB0C1102D8F0BCBDE80081EF
:1022200024425CBF01F5801E9EEAC47F02D4F0BC4C
:10223000BDE80081244238D4F0BCA1F1C041BDE822
:10224000004100F0EFB94FEAD22242EA43524FEA8E
:10225000D323A7FB02864FEAD02040EA415007FB78
:1022600003661EEA0E0F4FEAD12105FB026658BF36
:10227000A6EB0056B6EB00564FEA520E4EEAC37E6E
:1022800018EB0E0E56EB530EBDD518EB02085E414F
:102290007F1C55F10005B6E74FF480154FF000079D
:1022A0004FF000064FF00008ADE7F0BC4FF0000023
:1022B00001F1C04101F00041BDE8008111EA0C1FAD
:1022C0000CEA131500D00CE013EA0C1F00F0258077
:1022D0004FF00000F0BC81EA030101F00041BDE8CD
:1022E0000081F0BCBDE8004181EA030100F09AB929
:1022F000F0BCBDE8004170B500F046F9097EFC3E37
:1023000000F007B881EA03014FF0000001F000413E
:10231000704781EA030100F085B9F0BCBDE80041D7
:102320004FF0000021497047FFFDFBF9F7F5F4F28B
:10233000F0EEEDEBE9E8E6E4E3E1E0DEDDDBDAD860
:10234000D7D5D4D3D1D0CFCDCCCBCAC8C7C6C5C4BE
:10235000C2C1C0BFBEBDBCBBBAB9B8B7B6B5B4B3D5
:10236000B2B1B0AFAEADACABAAA9A8A8A7A6A5A4C0
:10237000A3A3A2A1A09F9F9E9D9C9C9B9A99999884
:102380009797969595949393929191908F8F8E8E27
:102390008D8C8C8B8B8A89898888878786858584B4
:1023A00084838382828181800000FF070000F87FA0
:1023B0004FEA41034FEA5353A3F58063D3F11E0361
:1023C000C8BFD3F1210C0CDD4FF0004242EAC1221C
:1023D00042EA505232FA03FC8CEAE17CACEBE17049
:1023E0007047102BC4BF0020704703F5787CBCF108
:1023F000FF3F04D06FF0004282EA2100704770B5C1
:1024000000F0C2F84992248000207047F2E7B0FA49
:1024100080F310FA03F10AD0C3F11D0303F58063C2
:102420004FEA41504FEA035202EBD12170474FF07F
:1024300000007047DFF848C170B51CEA111E1EBFCE
:102440001CEA13159EEA0C0F95EA0C0F00F06F8042
:1024500081EA030423EA4C134EEAD47E21EA4C11AC
:1024600041F4801143F48013AE44A1FB024CA0FB65
:102470000365AEF17F7E361955EB0C05A1FB034CCD
:102480004CF10003A0FB021C16EB0C06654153F156
:102490000003094218BF46F0010613F4007F0BD178
:1024A0004FEA03314FEA0530340341EA155140EA5F
:1024B00016506FF003020AE04FEAC3214FEAC5202D
:1024C000F40241EA555140EA56506FF0020202EB25
:1024D0002E4201EB025585EACE710AD05FEA440C28
:1024E00018BF24F0004450F1000041F1000120EA3F
:1024F000D47040F2FE7C624500D270BDA84214BF89
:102500004FF080444FF04044002E08BF0024BEF13D
:10251000806FA8BFA1F1C041BDE8704080F2828009
:102520004FF0000001F1C04101F0004170479EEA08
:102530000C0F0CEA131518BF95EA0C0F06D04FF0DC
:10254000000081EA030E0EF0004170BD00F01CF89F
:102550008900013E00F007B800F009B84FEA430CCB
:102560005FEA5C5C08D081EA030100F05BB84FEAE7
:10257000410C5FEA5C5CF6D14FF000000149704706
:102580000000FF070000F87F0EF1020E2EF0030E90
:102590005EF8046B364205D4012A43EB030515F5BA
:1025A000001F12D8012841EB010C1CF5001F0CD8AC
:1025B0000ED14FEAD17C15F5001F0CEB4C0C0CF141
:1025C000020C08BF4CEBD37C04E04FF0080C01E098
:1025D0004FEAD37C0CEB4C0526FA05F606F007060D
:1025E000B6F1040C06D20EEB860CBDE870404CF040
:1025F000010C6047DFE80CF0090B02024FF00041CC
:102600004FF00000A1F5002170BD194610460128C9
:1026100051EB010418BFD4F5001484BF002001F071
:10262000004170BD0808A0F500114FEA3101704764
:1026300090EA010F48BF81F0004100F10883421A7F
:102640003CBF801A89184FEAD0524FF07F4C1CEAE9
:10265000410FA2EBD15318BF9CEA026F00F03B8000
:102660004FF0004C4CEA00204CEA012121FA03FC17
:1026700010EB0C0C1ED202F1FF325FEA1C2040EB83
:10268000C25038BF70471CF07F0F4FEA400C18BF94
:10269000BCF17F4F38BF7047C3F12003994008BF9A
:1026A00020F00100BCF17F4F38BF7047A0F1C0405F
:1026B00000F085BA4FEA3C00000A40EBC25028BF48
:1026C0001CF0FF0F4FEA400CE6D018BFBCF17F4F63
:1026D00038BF7047EAE79CEA026F05D010EA5C0F4A
:1026E00008BF00F00040704710B500F022FA00BFAC
:1026F00064FBBE3E401058BFC0F14040491058BF77
:10270000C1F140418142EFF3008070474FF47F0CEC
:102710001CEAD0121EBF1CEAD11392EA0C0F93EAF6
:102720000C0F00F0858090EA010F48BF42F48072E0
:1027300040F4000C41F400002CF07F4120F07F4079
:1027400000B58142A2EB03020FF2081CACEB504E25
:10275000C0F100009EF800E04FEA4E0E00FB0EFCB8
:1027600038BF49004FEA2C1C02F5FA020CFB0EF3AD
:102770004FEACE1E4FEA112C4FEAC1210EEB635EE9
:1027800042EB22420EFB0CFC4FEA1C5300FB0311F0
:102790004FEA112C4FEA01310EFB0CFC4FEADC4CE6
:1027A00000FB0C11C14228BF09184CEB03335DF844
:1027B00004EB10EB410143EBC250B2F57C0F38BF84
:1027C000704729D512F0F00F1CBF00F1C04000F097
:1027D00000407047008182838485868788898B8C3E
:1027E0008D8E8F919293959697999A9C9D9FA0A27A
:1027F000A3A5A7A8AAACAEB0B2B3B5B7B9BCBEC0CA
:10280000C2C5C7C9CCCED1D4D7D9DCDFE2E6E9EC6A
:10281000F0F3F7FAFE0000004FEA400C0CF1807C68
:10282000BCF17E4F28BF7047B0F1C04000F0C7B97F
:1028300090EA010F0CEAD11348BF42F4807262455E
:1028400038BF634507D213F47F0F16D080EA01002A
:1028500000F00040704710B500F06BF9097EFC3EB7
:1028600000F005B880EA010000F00040704780EAFF
:10287000010000F0004000F0A2B912F47F0F04BF85
:102880000248704780EA010000F099B90000C07F5B
:1028900050EA010C00F113801CF5000F58BFBCF585
:1028A000000F01D48842704707D710F5000F58BFBA
:1028B00011F5000F15D488427047894270471CF506
:1028C000000F04D5BCF5000FF7D5814270474FF0DB
:1028D000807C1CEB400F38BF1CEB410F01D28142C2
:1028E000704710B500F025F9922449004FF00050D0
:1028F0004FF08051FFF7FEBE41000B0ED3F19E0258
:1029000008D950F400034FEA032323FA02F048BF2A
:102910004042704710B500F00CF900BF4992248086
:10292000002070476FF0004282EA200070470000EC
:10293000C10DD1F19E0206DB4FEA002343F00043B4
:1029400023FA02F07047004207D54FEA4001B1F187
:10295000FE4F02D24FF00000704710B500F0E9F8CA
:1029600049922480002070476FEA200070470000E1
:1029700010F0004148BF4042B0FA80F310FA03F271
:10298000C3F19D030BD051EAC35101EB1220530652
:1029900038BF704700F1010008BF20F00100704708
:1029A000B0FA80F310FA03F2C3F19D030AD0D905FF
:1029B00001EB1220530638BF704700F1010008BF39
:1029C00020F001007047000050EA010C00F1138074
:1029D0001CF5000F58BFBCF5000F01D488427047AA
:1029E00007D710F5000F58BF11F5000F15D4884216
:1029F0007047894270471CF5000F04D5BCF5000FE5
:102A0000F7D5814270474FF0807C1CEB400F38BFF8
:102A10001CEB410F01D28142704710B500F089F8DC
:102A2000922449004FF000504FF08051FFF762BEF2
:102A30004FF47F0C1CEAD0121EBF1CEAD11392EA9D
:102A40000C0F93EA0C0F00F0478090EA010F48BF8B
:102A500042F480724FF0004C4CEA00204CEA012115
:102A600002EB0302A0FB0113A2F50002002918BF2C
:102A700043F001035B0028BF4FEA330342EB2242DD
:102A80005FEA132C4CEBC2502EBFBCEB436FB2F588
:102A90007C0F70474FEA036CBCF1004F08BF20F079
:102AA0000100B2F57C0F38BF70470BD582F0FF02F2
:102AB00012F5803FC8BF704700F1C040D8BF00F09A
:102AC0000040704700F5000C5FEA4C0C48BF7047AF
:102AD000B0F1C04000F073B890EA010F0CEAD113D6
:102AE00048BF42F48072624538BF634504D280EA31
:102AF000010000F00040704710B500F01AF800BF68
:102B00008900013E00F007B800F009B85FEA410C07
:102B10005FEA1C6C08D080EA010000F050B85FEA60
:102B2000400C5FEA1C6CF6D14FF00040A0F580002D
:102B300070470EF1020E2EF0030E5EF8044B244295
:102B400004D44FEA4102B2F17F4F11D84FEA40035B
:102B5000B3F17F4F0CD80ED14FEAD07CB2F17F4F4A
:102B60000CEB4C0C0CF1020C08BF4CEBD17C04E0DC
:102B70004FF0080C01E04FEAD17C0CEB4C0324FA37
:102B800003F404F00704B4F1040C06D20EEB840C39
:102B9000BDE810404CF0010C6047DFE80CF007087E
:102BA00002024FF00040A0F5800010BD0846420030
:102BB00018BFD2F1807288BF00F0004010BDFF2125
:102BC00041EAD050C005704751EA000C00F1138073
:102BD0001CF5000F58BFBCF5000F01D481427047AF
:102BE00007D711F5000F58BF10F5000F15D481421B
:102BF0007047894270471CF5000F04D5BCF5000FE3
:102C0000F7D5884270474FF0807C1CEB410F38BFEE
:102C10001CEB400F01D28842704780EA010081EA34
:102C2000000180EA0100FFF7F8BE80F0004090EA62
:102C3000010F7FF504AD81F0004100F008B80000FD
:102C400090EA010F48BF81F000413FF5F8AC421A0D
:102C500004D882F00042A0EB020011444FEAD052A7
:102C60004FF07F4C1CEA410FA2EBD15318BF9CEAF6
:102C7000026F4AD04FF0004C4CEA00204CEA012190
:102C800021FA03FCB0EB0C0C0FD412F0FE0F36D07F
:102C90005FEA4C001DD5001240EBC25038BF7047B0
:102CA0001CF03F0F18BF70470BE0A2F101025FEA72
:102CB0001C2040EBC25038BF70471CF07F0F18BF7C
:102CC0007047C3F12003994014BF401E20F001005B
:102CD000704780084FEA122308BF7047B0FA80FCA3
:102CE000A2EB0C02CCF1280C60FA0CF093EA122F44
:102CF00004BF00EBC25070474FEAC3707047130A1D
:102D00005FEADC1008BF7047F6E79CEA026F04D068
:102D100010EA5C0F08BF0020704710B5FFF709FFED
:102D200040DFF63E81F000407047000000000000E8
:102D3000000000000000000000003F400000000014
:102D4000000000003000400030004000000009009A
:102D50000BC03D000BC03D00090018C024407FE0BF
:102D6000224031800000180024C01B000D8032403A
:102D7000018003801C4027401C8007400040100059
:102D800060000000000000000000000000000000E3
:102D90001F80204040200000402020401F80000075
:102DA0000000090006001F80060009000000040062
:102DB00004003F80040004000000001000600000D8
:102DC00000000000000004000400040004000400EF
:102DD0000000000000400000000000000000002093
:102DE00001C006003800400000001F802040204045
:102DF00020401F800000000010403FC00040000045
:102E0000000018C0214022402440184000001080DB
:102E10002040244024401B80000002000D001100CF
:102E20003FC0014000003C802440244024402380D7
:102E300000001F8024402440344003800000300004
:102E4000200027C03800200000001B8024402440C0
:102E500024401B8000001C0022C0224022401F8012
:102E6000000000000000084000000000000000001A
:102E700000000460000000000000000004000A00E0
:102E800011002080404009000900090009000900E4
:102E9000000000004040208011000A0004001800DB
:102EA000200023402400180000001F8020402740FD
:102EB00029401F400000004007C039000F0001C03A
:102EC000004020403FC0244024401B8000001F8061
:102ED0002040204020403080000020403FC0204063
:102EE00020401F80000020403FC024402E4030C0C2
:102EF000000020403FC024402E00300000000F00A2
:102F00001080204022403380020020403FC0040057
:102F100004003FC02040204020403FC020402040CF
:102F200000000060202020203FC020002000204022
:102F30003FC024400B0030C0204020403FC0204014
:102F40000040004000C03FC03C0003C03C003FC008
:102F5000000020403FC00C4023003FC020001F80E5
:102F60002040204020401F80000020403FC02440DF
:102F70002400180000001F802140214020E01FA0F5
:102F8000000020403FC02440260019C0004018C067
:102F900024402440224031800000300020403FC0C7
:102FA00020403000000020003F80004000403F8073
:102FB000200020003E0001C007003800200038003B
:102FC00007C03C0007C038000000204039C00600A0
:102FD00039C0204000002000384007C038402000A1
:102FE0000000304021C02640384020C000000000D2
:102FF00000007FE0402040200000000070000C0036
:103000000380004000000000402040207FE00000DE
:103010000000000020004000200000000000001020
:103020000010001000100010001000000000400010
:10303000000000000000000002800540054003C0C1
:10304000004020003FC00440044003800000000016
:103050000380044004400640000000000380044058
:1030600024403FC00040000003800540054003406D
:103070000000000004401FC0244024402000000045
:1030800002E0055005500650042020403FC0044097
:10309000040003C000400000044027C000400000BE
:1030A000000000100010041027E000000000204085
:1030B0003FC00140070004C00440204020403FC002
:1030C00000400040000007C0040007C0040003C027
:1030D0000000044007C00440040003C0004000009A
:1030E00003800440044003800000041007F00450F3
:1030F000044003800000000003800440045007F0F7
:103100000010044007C0024004000400000000005A
:1031100006400540054004C00000000004001F8078
:10312000044000400000040007800040044007C045
:1031300000400400070004C00180060004000600EF
:1031400001C0070001C006000000044006C00100E5
:1031500006C0044000000410071004E001800600CF
:1031600004000000044005C00640044000000000C8
:10317000000004007BE04020000000000000000090
:10318000FFF000000000000040207BE00400000091
:1031900000004000800040002000200040000000AF
:1031A000000000000000000000000000000000001F
:1031B000000000001FCC000C000000000000000018
:1031C00008003000600008003000600000000220AD
:1031D00003FC1E20022003FC1E2002200000000031
:1031E0000E1811043FFF10840C78000000000F003F
:1031F00010840F3800C00778188400780000007829
:103200000F8410C411240E9800E400840008080004
:1032100068007000000000000000000000000000D6
:103220000000000007E01818200440020000000021
:1032300040022004181807E00000000000000240CF
:10324000024001800FF00180024002400000008037
:10325000008000800FF800800080008000000001E6
:10326000000D000E00000000000000000000000043
:1032700000800080008000800080008000800000CE
:10328000000C000C00000000000000000000000026
:1032900000060018006001800600180020000000F1
:1032A00007F0080810041004080807F000000000E8
:1032B000080408041FFC00040004000000000000D3
:1032C0000E0C10141024104411840E0C0000000089
:1032D0000C1810041104110412880C700000000076
:1032E00000E00320042408241FFC00240000000048
:1032F0001F98108411041104108810700000000041
:1033000007F00888110411041888007000000000FC
:103310001C00100010FC13001C0010000000000036
:103320000E3811441084108411440E38000000003F
:103330000700088C10441044088807F000000000C3
:1033400000000000030C030C00000000000000005F
:103350000000000101060000000000000000000065
:103360000080014002200410080810040000022020
:103370000220022002200220022002200000000081
:103380001004080804100220014000800000000022
:103390000E001200100C106C10800F00000003E0F3
:1033A0000C1813E4142417C4082807D000000004E4
:1033B000003C03C41C40074000E4001C000410044F
:1033C0001FFC1104110411040E880070000003E0BA
:1033D0000C1810041004100410081C100000100435
:1033E0001FFC100410041004080807F0000010046B
:1033F0001FFC1104110417C4100408180000100465
:103400001FFC1104110017C010000800000003E0A9
:103410000C181004100410441C7800400000100424
:103420001FFC10840080008010841FFC100400002A
:10343000100410041FFC100410040000000000031E
:103440000001100110011FFE100010000000100408
:103450001FFC110403801464181C100400001004E5
:103460001FFC1004000400040004000C0000100401
:103470001FFC1F0000FC1F001FFC100400001004B4
:103480001FFC0C04030000E010181FFC100007F0E4
:103490000808100410041004080807F000001004C5
:1034A0001FFC10841080108010800F00000007F0B7
:1034B000081810241024101C080A07F20000100439
:1034C0001FFC1104110011C011300E0C000400008B
:1034D0000E1C11041084108410441C3800001800C5
:1034E000100010041FFC1004100018000000100051
:1034F0001FF810040004000410041FF8100010004E
:103500001E0011E0001C007013801C0010001FC082
:10351000103C00E01F0000E0103C1FC00000100441
:10352000180C163401C001C01634180C1004100019
:103530001C00130400FC13041C001000000008040D
:10354000101C1064108413041C04101800000000E8
:10355000000000007FFE4002400240020000000028
:1035600030000C0003800060001C0003000000001D
:103570004002400240027FFE000000000000000008
:10358000000020004000400040002000000000013A
:103590000001000100010001000100010001000024
:1035A000400040002000000000000000000000007B
:1035B0000098012401440144014400FC000410006F
:1035C0001FFC008801040104008800700000000056
:1035D000007000880104010401040088000000005C
:1035E000007000880104010411081FFC00040000A1
:1035F00000F8014401440144014400C800000000F7
:10360000010401040FFC1104110411001800000052
:1036100000D601290129012901C901060000100471
:103620001FFC008401000100010400FC00040000F4
:103630000104190419FC000400040000000000004B
:10364000000300010101190119FE0000000010042F
:103650001FFC0024004001B4010C01040000000024
:10366000100410041FFC000400040000000001040A
:1036700001FC0104010001FC0104010000FC010443
:1036800001FC008401000100010400FC00040000B2
:1036900000F8010401040104010400F80000010124
:1036A00001FF008501040104008800700000000093
:1036B0000070008801040104010501FF00010104FC
:1036C000010401FC008401040100018000000000ED
:1036D00000CC0124012401240124019800000000F1
:1036E0000100010007F801040104000000000100CE
:1036F00001F8000400040004010801FC00040100BA
:1037000001800170000C001001600180010001F0D7
:10371000010C003001C00030010C01F0010000007C
:103720000104018C00740170018C0104000001018E
:1037300001810171000E001801600180010000008C
:103740000184010C013401440184010C00000000DB
:1037500000000000000001003EFC400240020000AA
:10376000000000000000FFFF00000000000000005B
:10377000400240023EFC010000000000000000008A
:103780006000800080004000400020002000000019
:10379000B037000800000020840000002801000865
:1037A00034380008840000208C0A0000440100081E
:1037B0000000000010270000280000000000F04278
:1037C000CDCCCC3D0000FA430000A0410000F04108
:1037D0000000A041CDCCCC3D0000C841000000401D
:1037E000000040400000803F0000803F00000000DB
:1037F00000000000000000000000000000000000C9
:1038000000000000000000000000000001000000B7
:1038100000000000000000000000000000000000A8
:103820000000000000000000000000000000000098
:043830000000000094
:04000005080000ED02
:00000001FF
